:100000000C9456030C9473030C9473030C94F61223
:100010000C9473030C9473030C9473030C94730388
:100020000C9473030C947E060C9473030C94E803F5
:100030000C9473030C9475030C9487030C94730352
:100040000C9473030C9473030C9473030C94730358
:100050000C9473030C944E120C9473030C9473035E
:100060000C94C6220C9473031058BC1C16163F3F08
:1000700016161CBC5800000000101EB87D363C3C13
:100080003C3C367DB81E00000000109C9E5E76371A
:100090005F5F37765E9E9C0000000010181C9C5627
:1000A000B65F5FB6569C1C18000000001070187DEB
:1000B000B6BC3C3CBCB67D187000000000101C5E55
:1000C000FEB6375F5F37B6FE5E1C00000000000022
:1000D00000000000005F00000007000700147F140C
:1000E0007F14242A7F2A122313086462364955227A
:1000F000500005030000001C2241000041221C00AA
:10010000082A1C2A0808083E080800503000000889
:1001100008080808006060000020100804023E5132
:1001200049453E00427F40004261514946214145D8
:100130004B311814127F1027454545393C4A49492F
:100140003001710905033649494936064949291ED6
:100150000036360000005636000000081422411414
:1001600014141414412214080002015109063249E2
:1001700079413E7E1111117E7F494949363E414108
:1001800041227F4141221C7F494949417F090901A0
:10019000013E414151327F0808087F00417F410004
:1001A0002040413F017F081422417F404040407F72
:1001B0000204027F7F0408107F3E4141413E7F09D7
:1001C0000909063E4151215E7F09192946464949E0
:1001D000493101017F01013F4040403F1F20402045
:1001E0001F7F2018207F631408146303047804031E
:1001F000615149454300007F4141020408102041FC
:10020000417F0000040201020440404040400001E0
:1002100002040020545454787F48444438384444FD
:100220004420384444487F3854545418087E090107
:1002300002081454543C7F0804047800447D4000B4
:100240002040443D00007F10284400417F40007C56
:10025000041804787C0804047838444444387C1436
:10026000141408081414187C7C0804040848545416
:100270005420043F4440203C4040207C1C2040202F
:100280001C3C4030403C44281028440C5050503C0A
:100290004464544C44000836410000007F000000D4
:1002A0004136080008082A1C08081C2A0808000013
:1002B000000000000000005F0000000000070007D1
:1002C000000000147F147F140000242A7F2A1200EB
:1002D00000231308646200003649552250000000D4
:1002E000050300000000001C224100000000412224
:1002F0001C000000082A1C2A08000008083E080804
:1003000000000050300000000000181818181800F5
:1003100000606000000000201008040200001C3E85
:100320006141433E1C40427F7F40400062737959E7
:100330005D4F462061494D4F7B31181C16137F7F5E
:100340001027674545457D383C7E4B494979300348
:100350000371790D0703367F4949497F36064F49B6
:1003600049693F1E00363600000000005636000086
:10037000000000081422410000141414141400009A
:100380004122140800000002015109060000324910
:1003900079413E00007E1111117E00007F494949DC
:1003A0003600003E4141412200007F7F4141633ED3
:1003B0001C7F4949494100007F0909010100003EB5
:1003C0004141513200007F0808087F000000417F52
:1003D000410000002040413F0100007F08142241FD
:1003E00000007F7F40404040007F0204027F000009
:1003F0007F0408107F00003E7F4141417F3E7F091E
:1004000009090600003E4151215E00007F7F113145
:10041000796F4E4649494931000001017F010100D1
:10042000003F4040403F00001F2040201F00007F51
:100430007F381C387F7F631408146300000304783E
:10044000040300006151494543000000007F414121
:1004500000000204081020000041417F000000005D
:10046000040201020400004040404040000000013E
:100470000204000000205454547800007F48444493
:1004800038000038444444200000384444487F0089
:100490000038545454180000087E09010200000876
:1004A0001454543C00007F08040478000000447D8C
:1004B000400000002040443D000000007F10284420
:1004C000000000417F400000007C04180478000018
:1004D0007C080404780000384444443800007C144C
:1004E0001414080000081414187C00007C0804048C
:1004F00008000048545454200000043F44402000A9
:10050000003C4040207C00001C2040201C00003C9F
:100510004030403C0000004428102844000C50505B
:10052000503C00004464544C440000000836410034
:10053000000000007F0000000000413608000000BD
:1005400008082A1C080000081C2A08080000493274
:10055000433A204255535F4552524F520D0A0049CB
:1005600032433A204E4F5F494E464F0D0A00493202
:10057000433A2053542D3E444154415F4E41434B36
:10058000206F72204C4153545F444154410D0A0086
:100590004932433A2053542D3E444154415F414334
:1005A0004B0D0A004932433A2053542D3E534C41DF
:1005B0005F41434B0D0A004932433A2053522D3ECE
:1005C00053525F53544F500D0A004932433A20535F
:1005D000522D3E444154415F4E41434B0D0A004968
:1005E00032433A2053522D3E444154415F41434BE4
:1005F0000D0A004932433A2053522D3E534C415F7D
:1006000041434B0D0A004932433A204D522D3E538F
:100610004C415F41434B0D0A004932433A204D5251
:100620002D3E444154415F41434B0D0A0049324342
:100630003A204D542D3E4152425F4C4F53540D0AC7
:10064000004932433A204D54522D3E534C415F4EA7
:1006500041434B206F72204D542D3E444154415F25
:100660004E41434B0D0A004932433A204D522D3E34
:10067000444154415F4E41434B0D0A004932433AD5
:10068000204D542D3E534C415F41434B206F72200F
:10069000444154415F41434B0D0A004932433A20E3
:1006A0004D2D3E53544152540D0A000011241FBEDB
:1006B000CFEFD8E0DEBFCDBF17E0A0E0B1E0E0E9CA
:1006C000F6E502C005900D92A230B107D9F717E008
:1006D000A2E0B7E001C01D92AB3AB107E1F70E947A
:1006E000F0070C94462B0C9400001F920F920FB64B
:1006F0000F9211248F939F9388B198E0892788B92E
:100700009F918F910F900FBE0F901F9018951F9281
:100710000F920FB60F9211248F939F938091090728
:1007200090910A07892B49F08091090790910A0757
:10073000019790930A078093090780918C07909105
:100740008D07892B49F080918C0790918D07019737
:1007500090938D0780938C0780918A07882389F175
:100760008091070790910807892B59F5809181079F
:1007700090918207892BE1F48CE291E090938207BB
:100780008093810780918100882379F41092800002
:1007900089E08093810083E080936F0088EE93E08E
:1007A000909389008093880003C010928100439841
:1007B000809181079091820701979093820780939F
:1007C00081079F918F910F900FBE0F901F901895EA
:1007D0001F920F920FB60F9211248F939F9388B19F
:1007E00098E0892788B99F918F910F900FBE0F9045
:1007F0001F901895AF92BF92CF92DF92EF92FF9227
:100800000F931F93E62E1092800029E02093810021
:1008100023E020936F009C0140E050E060E079E02D
:100820008DE390E00E94DE2A3093890020938800B7
:10083000FF2400E010E0C801B7010E94FC275B0123
:100840006C0120E030E04AEF54E40E941E267B0158
:100850008C0120E030E040E85FE30E9478278823A5
:100860001CF461E070E024C0C801B70120E03FEF54
:100870004FE757E40E9418271816B4F4C601B501D3
:1008800020E030E040E251E40E941E260E9448240D
:1008900088EC90E005C0FC013197F1F761507040A1
:1008A00061157105C1F707C0C801B7010E9448244E
:1008B000CB010197F1F71092810043981F910F919E
:1008C000FF90EF90DF90CF90BF90AF900895FC0124
:1008D00083709070892B39F4CF0164E670E00E9438
:1008E000952A892B49F420E030E0CF0160E971E0DE
:1008F0000E94952A892B11F421E030E0822F08957F
:100900000895482F6AE00E94892A282F30E084E069
:10091000220F331F8A95E1F7842F0E94892A892F9D
:10092000822B089588E592E090930807809307074B
:1009300010928100439810928B0708951E9B16C059
:1009400080918707882321F11092870710929007E2
:10095000109208071092070780918A078823C1F038
:1009600010928A071092810043980895809187071A
:10097000882371F481E08093870710920807109212
:10098000070783E080930607809305070E94E01520
:1009900008950F931F93182F062F6AE00E94892A4B
:1009A000805D602F0E94641D812F6AE00E94892A69
:1009B000892F805D602F0E94641D1F910F91089503
:1009C000AF92BF92CF92DF92EF92FF920F931F935D
:1009D000DF93CF93CDB7DEB728970FB6F894DEBF7D
:1009E0000FBECDBF162FF42ED22E5E010894A11C8F
:1009F000B11C98E0F50111929A95E9F719820E94CD
:100A000081048A83812F0E9481048B838F2D0E9411
:100A100081048C838D2D0E9481048D83802F0E9400
:100A200081048E838E2D0E9481048F838C2D0E94E1
:100A30008104888780ED68E0A5010E942C2288232C
:100A4000D9F008EC10E080EA9FE064E60E94FA0327
:100A500088EE93E0F8013197F1F70197D9F780EA32
:100A60009FE064E60E94FA0380E197E2F801319783
:100A7000F1F70197D9F7E7CF28960FB6F894DEBFC4
:100A80000FBECDBFCF91DF911F910F91FF90EF90DF
:100A9000DF90CF90BF90AF9008950F931F93DF9397
:100AA000CF93CDB7DEB729970FB6F894DEBF0FBE50
:100AB000CDBF198280ED61E0AE014F5F5F4F0E94B4
:100AC0002C228823D9F008EC10E080EA9FE064E64D
:100AD0000E94FA0388EE93E0F8013197F1F701974D
:100AE000D9F780EA9FE064E60E94FA0380E197E28A
:100AF000F8013197F1F70197D9F7E7CF80ED67E07B
:100B0000AE014E5F5F4F0E9473228823D9F008EC3C
:100B100010E080EA9FE064E60E94FA0388EE93E02A
:100B2000F8013197F1F70197D9F780EA9FE064E681
:100B30000E94FA0380E197E2F8013197F1F70197FB
:100B4000D9F7E7CF7A81872F82958F7090E08770F1
:100B500090709C01A3E0220F331FAA95E1F7880F44
:100B6000991F280F391F872F8F70820F80938F074F
:100B70004B81842F82958F7090E0877090709C01DC
:100B8000E3E0220F331FEA95E1F7880F991F280F42
:100B9000391F4F70420F409385078C81482F429533
:100BA0004F70682F6F7086FF22C082958695877080
:100BB00090E0817090709C01220F331F280F391F25
:100BC000220F331F220F331F842F90E0817090700B
:100BD000AC0103E0440F551F0A95E1F7880F991FF8
:100BE000480F591F240F260F20937C0711C0842F14
:100BF00090E0837090709C01B3E0220F331FBA9590
:100C0000E1F7880F991F280F391F620F60937C0747
:100C10004E81842F82958F7090E0837090709C013C
:100C2000F3E0220F331FFA95E1F7880F991F280F81
:100C3000391F4F70420F409384074F81842F829554
:100C40008F7090E0817090709C0163E0220F331FE1
:100C50006A95E1F7880F991F280F391F4F70420FCF
:100C600040938E072885822F82958F703AE0839F6C
:100C7000C00111242F70280F20937F07872F8078C1
:100C800029960FB6F894DEBF0FBECDBFCF91DF918E
:100C90001F910F910895CF92EF920F930E9486219A
:100CA0000E944D05882359F080E060E04CE020E090
:100CB00001E0EE24E394B9E0CB2E0E94E0040E9410
:100CC0004D0582E090E00E94302B6CE30E94892A5F
:100CD0009093800781E090E00E94302B68E10E94B1
:100CE000892A9093890787E08093B10081E08093FF
:100CF000700078940F91EF90CF9008951F920F920B
:100D00000FB60F921124FF920F931F932F933F93CF
:100D10004F935F936F937F938F939F93AF93BF9303
:100D2000EF93FF93A89580910B07803579F410928B
:100D30000B07F0908F071091850700917C070E94A8
:100D40004D0580917C07801729F40AC08F5F80933E
:100D50000B07DBC081E0809304070093860707C080
:100D600080918507811729F081E080930307109314
:100D70007D0780918F078F1509F441C080918A0704
:100D8000882359F08091070790910807009729F070
:100D900001979093080780930707809105078823A0
:100DA00071F18091050781508093050780910507B7
:100DB000882329F58091060780931407109206076F
:100DC00080910407882329F08091860780937C070F
:100DD00004C080910307882321F080917D078093D0
:100DE00085070E94E01580910407882321F48091F3
:100DF0000307882321F000937C07109385078091D7
:100E00008B07843061F080918B07853041F08091B1
:100E10008B07883021F080918B07863089F580918F
:100E20000E07882369F584E462E00E943F218091E7
:100E30007C0760E00E9499098AE360E00E94641DDB
:100E40008091850760E00E94C9048AE360E00E9407
:100E5000641D80918F0760E00E94C90480917E0725
:100E6000882371F480E260E00E94641D80917C0719
:100E70008C3010F080E501C081E460E00E94641DC8
:100E800080918707882399F080918F07882379F4D0
:100E90009091850780918007981749F490917C077D
:100EA00080918907981719F481E0809390078091C9
:100EB0000307882369F480910407882349F480910B
:100EC0009007882329F081E080938A071092900789
:100ED00080910C07863039F410920C07809112072C
:100EE000882329F409C08F5F80930C070EC080917E
:100EF000120781508093120780910D07882329F0F3
:100F000080910D07815080930D07FF91EF91BF9164
:100F1000AF919F918F917F916F915F914F913F9191
:100F20002F911F910F91FF900F900FBE0F901F9068
:100F30001895EF92FF920F931F93F82E162FE42E21
:100F400021E001E00E94E51DFE0C0F2D0250115022
:100F5000802F612F0E94281F1E5F802F612F0E940B
:100F6000281F01501350802F612F0E94281F1C5FE3
:100F7000802F612F0E94281F1F910F91FF90EF90EB
:100F8000089580E090E00E94302B833C41F181E0A5
:100F900090E068E00E94382B82E090E060E00E94E0
:100FA000382B83E090E060E10E94382B84E090E0F1
:100FB00061E00E94382B85E090E060E00E94382BD1
:100FC00086E090E060E00E94382B87E090E06AE0E5
:100FD0000E94382B80E090E063EC0E94382B08954B
:100FE0007F928F929F92AF92BF92CF92DF92EF92B9
:100FF000FF920F931F93CF93DF9384B714BE88E1C2
:101000000FB6F89480936000109260000FBE8AE1E2
:1010100090E00E94A31B3B9A0E944B060E94E013A3
:101020000E94C10785E090E00E94302B80938807E2
:1010300086E090E00E94302B80937E070E9423126E
:101040000E949E0482E084BD83E085BD8DE787BD5C
:1010500080916E00826080936E00539A80E280934C
:10106000B0008091B00083608093B0008091B100A7
:1010700088608093B10080E18093B30083E090E0CA
:101080000E94302B8093B400259A80EA9FE064E6AA
:101090000E94FA032FE088E190E00FB6F894A8953B
:1010A000809360000FBE209360000E946D210E941B
:1010B00049210E945D1680E00E944B1B00E010E079
:1010C0006BE4A62EB12CC8E5D2E052E0752ECC24FC
:1010D000C39443E0F42E35E0D32E24E0E22E98E0D2
:1010E000892E86E0982EB0928D07A0928C07809171
:1010F0001007882379F080918A07882359F010928D
:101100001007D0930807C0930707109281004398F7
:1011100010928B07113039F4809105078823F1F480
:10112000D092060708C0123061F480910507882329
:10113000A9F4C0920607F09205070E94E01513E09B
:101140000DC0133059F480910507882339F470924B
:101150000607109305070E94E01510E08091100724
:10116000867041F11092100780918807882321F042
:1011700080918807813019F4C092060712C08091CF
:101180008807823021F080918807833021F4E09233
:10119000060712E00BC080918807843021F4D092BA
:1011A000060713E003C0E092060711E0F09205077E
:1011B0000E94E0158091100780FF44C01092100734
:1011C00010920607109205070E94E01580918B0788
:1011D000843089F0853028F4882341F0833009F584
:1011E00011C08530A1F08830E1F416C0E0928B0781
:1011F0000E94CD0D1DC0F0928B070E942C0C109206
:10120000000116C0D0928B070E94641011C080921A
:101210008B070E94CD0E0CC090928B070E94940FFA
:1012200007C010928B070E94492180E00E944B1B4F
:1012300080918B07882329F40E94492180E00E9435
:101240004B1B10E080918B07882339F5002369F44C
:1012500080918A07882369F080918F0780FF09C0F9
:1012600081E00E944B1B01E018C080918A0788230F
:1012700051F080918A07882359F0002349F080912A
:101280008F0780FD05C080E00E944B1B00E005C079
:101290002D9A802F0E943A1B2D9880918C07909157
:1012A0008D07892BD1F71FCF0F931F93CF93DF9318
:1012B000182F062F80917E07882371F584E761E05F
:1012C0000E943F211C3010F080E501C081E460E005
:1012D0000E94641D8DE460E00E94641D80E561E071
:1012E0000E943F21812F90E047966CE070E00E94C1
:1012F000A92AEC018930910524F09C012F5F822FEF
:1013000010C080E260E00E94641D9E012F5C822F6D
:10131000602F0E94641D08C080E561E00E943F21AB
:10132000812F602F0E94C904DF91CF911F910F91EF
:1013300008950F931F93CF93DF93082F162F80915B
:101340007E078823D1F4802F90E047966CE070E010
:101350000E94A92AEC018930910524F09C012F5F9D
:10136000822F14C080E260E00E94641D9E012F5C09
:10137000822F612F0E94641D0CC080E260E00E94F9
:10138000641D80E260E00E94641D802F612F0E9436
:10139000C904DF91CF911F910F9108951F93182FCA
:1013A00088E064E00E943F2181E091E060E00E94DB
:1013B000D41D80918807882339F480917E07882383
:1013C00019F48AE091E078C080918807882339F485
:1013D00080917E07813019F487E191E06DC08091A2
:1013E0008807813039F480917E07882319F484E2DC
:1013F00091E062C080918807813039F480917E0746
:10140000813019F481E391E057C0809188078230E0
:1014100039F480917E07882319F48EE391E04CC063
:1014200080918807823039F480917E07813019F4E9
:101430008BE491E041C080918807833039F480913A
:101440007E07882319F488E591E036C080918807EB
:10145000833039F480917E07813019F485E691E07C
:101460002BC080918807843039F480917E078823CF
:1014700019F482E791E020C080918807843039F424
:1014800080917E07813019F48FE791E015C080913B
:101490008807853039F480917E07882319F48CE819
:1014A00091E00AC080918807853049F480917E07D9
:1014B000813029F489E991E0612F0E94D41D1F91A8
:1014C0000895282F663081F1673078F4633019F180
:1014D000643030F46130C9F0623009F03FC018C0A8
:1014E0006430E1F06530D1F51CC0693031F16A300B
:1014F00028F46730E1F0683089F51CC06B3019F1D1
:101500006B30F0F06C3051F524C086EA91E01DC0DC
:101510008AEA91E01AC08EEA91E017C082EB91E06E
:1015200014C086EB91E011C08AEB91E00EC08EEB07
:1015300091E00BC082EC91E008C086EC91E005C020
:101540008AEC91E002C08EEC91E0622F0E94D41DE3
:10155000089582ED91E0622F0E94D41D08951F939B
:10156000182F862F642F422F0E945E168330B9F009
:10157000843028F4813069F0823070F407C08530FF
:10158000A1F0853078F08630C1F412C086ED91E08C
:1015900011C08BED91E00EC080EE91E00BC085EEA6
:1015A00091E008C08AEE91E005C08FEE91E002C0A4
:1015B00084EF91E0612F0E94D41D1F910895EF9256
:1015C000FF920F931F93182F062FE42EF22E88E020
:1015D00063E00E943F2189EF91E060E00E94D41D0A
:1015E00080918807882331F48FEF91E060E00E94BA
:1015F000D41D18C080918807813031F48FEF91E0BD
:1016000060E00E94D41D2FC0809188078230E9F4E9
:1016100080E260E00E94641D80E0612F402F2E2D4B
:101620000E94AF0A60E08BE0F81609F461E0812FB8
:101630000E94C9048FE260E00E94641D60E09CE0AB
:10164000F91609F461E0802F20C08091880783306B
:1016500001F580E260E00E94641D80E0612F402F70
:101660002E2D0E94AF0A60E08CE0F81609F461E0CC
:10167000802F0E94C9048FE260E00E94641D60E038
:101680009BE0F91609F461E0812F0E94C9048FE202
:101690003EC0809188078430F9F485E092E060E0F4
:1016A0000E94D41D80E09BE0F91609F481E0612FCF
:1016B0000E94610A80E260E00E94641D60E08CE0AC
:1016C000F81609F461E0802F0E94C9048CE260E002
:1016D0000E94641D80E21BC080E0612F402F2E2DF0
:1016E0000E94AF0A80E09BE0F91609F481E0612FC7
:1016F0000E94610A80E260E00E94641D60E08CE06C
:10170000F81609F461E0802F0E94C9048CE260E0C1
:101710000E94641D10E09DE0F91609F411E084E1D7
:10172000612F0E94C9048E2D612F0E94C9041F9150
:101730000F91FF90EF90089580910E078F5F809337
:101740000E070E94492180E060E00E943F2189E06D
:1017500092E060E00E94D41D88E061E00E943F2199
:101760008CE192E060E00E94D41D8091890760E0E6
:101770000E9454098AE360E00E94641D8091800702
:1017800060E00E94C90488E062E00E943F2189E293
:1017900092E060E00E94D41D80917C0760E00E948E
:1017A00099098AE360E00E94641D8091850760E0EA
:1017B0000E94C9048AE360E00E94641D80918F0743
:1017C00060E00E94C90480917E07882371F480E262
:1017D00060E00E94641D80917C078C3010F080E5F1
:1017E00001C081E460E00E94641D80918E076091D9
:1017F000840740917F0790E070E050E025E030E002
:101800000E94DF0A80E090E00E94CE0988E065E057
:101810000E943F2184E392E060E00E94D41D809109
:10182000B40060E00E94C90480E066E00E943F21AD
:1018300084E492E060E00E94D41D80E067E00E94B2
:101840003F218AE592E060E00E94D41D80910E075E
:10185000815080930E070895BF92CF92DF92EF924E
:10186000FF920F931F93CF93DF9310917C07D0903B
:101870008507F0908F070E949C0B80910E078F5F69
:1018800080930E0780E063E147E00E949907809112
:101890000E07815080930E078AE080930D0703E0C6
:1018A0008AE0B82EC8ECD0E08091100780FD6BC1B3
:1018B00080911007882321F480911107882319F063
:1018C000B0920D0707C080910D07882319F410927C
:1018D0008B0759C18091100781FFDCC0109210075F
:1018E00080910E078F5F80930E07033081F584E4AB
:1018F00062E00E943F21812F61E00E94990984E704
:1019000062E00E943F2180917E07882361F480E29B
:1019100060E00E94641D1C3010F080E501C081E48D
:1019200061E00E94641D80E066E00E943F218BE63A
:1019300092E060E00E94D41D80E067E00E943F21B9
:1019400081E892E060E00E94D41D05E69EC0053665
:10195000C1F584E462E00E943F21812F60E00E9493
:1019600099098AE360E00E94641D8D2D61E00E9468
:10197000C90480E066E00E943F2187E992E060E0D0
:101980000E94D41D80E067E00E943F218DEA92E032
:1019900060E00E94D41D84E762E00E943F218091B4
:1019A0007E07882361F480E260E00E94641D1C30A1
:1019B00010F080E501C081E460E00E94641D06E64D
:1019C00064C0063651F580917E07882311F486E5C0
:1019D00001C082E662E00E943F218D2D60E00E94FE
:1019E000C9048AE360E00E94641D8F2D61E00E94BB
:1019F000C90480E066E00E943F2183EC92E060E051
:101A00000E94D41D80E067E00E943F2189ED92E0B2
:101A100060E00E94D41D07E638C080917E078823CD
:101A200011F488E601C084E762E00E943F218F2D17
:101A300060E00E94C90480E066E00E943F2184E4E7
:101A400092E060E00E94D41D80E067E00E943F21A8
:101A50008AE592E060E00E94D41D10937C07D0924A
:101A60008507F0928F0780918F07609185074091DD
:101A70007C0700918407E0908E07C0907F0720E0EC
:101A80000E94E0040E94E01303E080910E07815061
:101A900080930E078091100782FD04C0809111078A
:101AA00082FF02CF1092100780910E078F5F809304
:101AB0000E07053649F5812F90E0019668E170E048
:101AC0000E94A92A182F80937C0784E462E00E9478
:101AD0003F21812F61E00E94990984E762E00E9422
:101AE0003F2180917E078823E9F580E260E00E9433
:101AF000641D80917C078C3010F080E501C081E48A
:101B000061E00E94641D2EC00636A1F48D2D90E088
:101B100001966CE370E00E94A92AD82E80917E077E
:101B2000882311F486E501C082E662E00E943F212D
:101B30008D2D15C00736B1F48F2D90E001966CE322
:101B400070E00E94A92AF82E80917E07882311F464
:101B500088E601C084E762E00E943F218F2D61E0AA
:101B60000E94C90480910E07815080930E078091D6
:101B7000110782FF99CE80ED97E0FE013197F1F7D2
:101B80000197D9F791CEDF91CF911F910F91FF90DF
:101B9000EF90DF90CF90BF9008950F931F93CF9356
:101BA000DF930E949C0B80910E078F5F80930E073E
:101BB00080E06BE047E00E94990780910E0781501A
:101BC00080930E078AE080930D0714E00AE0C8ECCA
:101BD000D0E08091100780FDDBC080911007882342
:101BE00021F480911107882319F000930D0707C095
:101BF00080910D07882319F410928B07C9C080913A
:101C0000100781FF74C01092100780910E078F5F3C
:101C100080930E071430C9F48091890761E00E9417
:101C2000540980E066E00E943F218BE692E060E08C
:101C30000E94D41D80E067E00E943F2181E892E08D
:101C400060E00E94D41D15E64DC0153631F580E5E3
:101C500061E00E943F218091890760E00E94540961
:101C600082E661E00E943F218091800761E00E944E
:101C7000C90480E066E00E943F2187E992E060E0CD
:101C80000E94D41D80E067E00E943F218DEA92E02F
:101C900060E00E94D41D16E625C080E561E00E9448
:101CA0003F218091890760E00E94540982E661E04B
:101CB0000E943F218091800760E00E94C90480E07B
:101CC00066E00E943F2184E492E060E00E94D41D1F
:101CD00080E067E00E943F218AE592E060E00E9498
:101CE000D41D14E080910E07815080930E078091DF
:101CF000100782FD04C08091110782FF6ACF109205
:101D0000100780910E078F5F80930E071536A1F4A0
:101D10008091890790E0019668E170E00E94A92A0D
:101D2000809389078091890761E00E94540960913E
:101D3000890781E090E019C01636C9F480918007C8
:101D400090E001966CE370E00E94A92A80938007DE
:101D500082E661E00E943F218091800761E00E945D
:101D6000C9046091800782E090E00E94382B809146
:101D70000E07815080930E078091110782FF29CFB3
:101D800080ED97E0FE013197F1F70197D9F721CF68
:101D9000DF91CF911F910F9108950F931F930E9490
:101DA0009C0B80910E078F5F80930E0780E063E2AB
:101DB00047E00E94990780910E07815080930E079B
:101DC0008AE080930D0718E00AE08091100780FDFB
:101DD000A8C080911007882321F4809111078823DF
:101DE00019F000930D0707C080910D07882319F49F
:101DF00010928B0796C08091100781FF3BC0109214
:101E0000100780910E078F5F80930E071830B9F48A
:101E100081E00E94CE0980E066E00E943F218FEEC3
:101E200092E060E00E94D41D80E067E00E943F21C4
:101E300085E093E060E00E94D41D18E616C080E0C3
:101E40000E94CE0980E066E00E943F2184E492E097
:101E500060E00E94D41D80E067E00E943F218BE19A
:101E600093E060E00E94D41D18E080910E0781503D
:101E700080930E078091100782FD04C080911107A6
:101E800082FFA3CF10921007183609F09ECF8091E1
:101E90007E07882359F0809188078F5F8093880799
:101EA00080918807863010F01092880780917E0715
:101EB00090E0882309F491E090937E0780910E07CB
:101EC0008F5F80930E070E949C0B80E066E00E946B
:101ED0003F218FEE92E060E00E94D41D80E067E039
:101EE0000E943F2185E093E060E00E94D41D80E0E5
:101EF00063E247E00E94990781E00E94CE09809149
:101F00000E07815080930E076091880785E090E06E
:101F10000E94382B60917E0786E090E00E94382B6B
:101F200054CF1F910F9108950F931F930E949C0B04
:101F300080910E078F5F80930E0780E066E00E941D
:101F40003F2181E393E060E00E94D41D80E06BE2DA
:101F500047E00E94990780910E07815080930E07F9
:101F60008AE080930D0716E00AE08091100780FD5B
:101F7000A8C080911007882321F48091110788233D
:101F800019F000930D0707C080910D07882319F4FD
:101F900010928B0796C08091100781FF47C0109266
:101FA000100780910E078F5F80930E071630E9F4BB
:101FB00082E665E00E943F218091B40061E00E94CA
:101FC000C90480E066E00E943F2187E493E060E07E
:101FD0000E94D41D80E067E00E943F218CE593E0E1
:101FE00060E00E94D41D19E61CC082E665E00E94F4
:101FF0003F218091B40060E00E94C90480E066E067
:102000000E943F2181E793E060E00E94D41D80E0C0
:1020100067E00E943F2184E893E060E00E94D41DC5
:1020200016E080910E07815080930E078091100773
:1020300082FD04C08091110782FF97CF1092100794
:10204000193609F092CF8091B4008F5F8093B4006D
:102050008091B400813110F01092B40080910E078D
:102060008F5F80930E070E949C0B80E066E00E94C9
:102070003F218FEE92E060E00E94D41D80E067E097
:102080000E943F2185E093E060E00E94D41D80E043
:102090006BE247E00E94990782E665E00E943F21DB
:1020A0008091B40061E00E94C90480910E078150C4
:1020B00080930E076091B40083E090E00E94382B7B
:1020C00054CF1F910F910895BF92CF92DF92EF925C
:1020D000FF920F931F93CF93DF93F090840710919B
:1020E0008E07D0907F070E949C0B80910E078F5F18
:1020F00080930E0780E06BE147E00E949907809192
:102100000E07815080930E078AE080930D0705E04B
:102110004AE0B42EC8ECD0E08091100780FD89C160
:1021200080911007882321F480911107882319F0EA
:10213000B0920D0707C080910D07882319F4109203
:102140008B0777C18091100781FFE1C010921007C3
:1021500080910E078F5F80930E070530F1F4809118
:102160008807882309F451C080918807823009F4D8
:102170004CC080918807843009F447C0809188075B
:10218000853009F442C0809188078130C9F0809180
:102190008807833009F086C013C00B3059F5809151
:1021A0008807882369F080918807823049F0809100
:1021B0008807843029F080918807853009F050C065
:1021C000812F6F2D4D2D2CE00E94DF0A80E066E00C
:1021D0000E943F2184EC93E060E00E94D41D80E0E7
:1021E00067E00E943F218AED93E060E00E94D41DE9
:1021F0000CE088C00C3009F055C080918807813010
:1022000021F0809188078330D1F4812F6F2D4D2DDF
:102210002BE00E94DF0A80E066E00E943F2188E90F
:1022200093E060E00E94D41D80E067E00E943F21BF
:102230008EEA93E060E00E94D41D0BE063C08091C1
:1022400088078823A9F080918807823089F08091DF
:102250008807843069F080918807853019F508C0B7
:1022600080918807813021F0809188078330D1F4F4
:10227000812F6F2D4D2D2DE00E94DF0A80E066E05A
:102280000E943F2180EF93E060E00E94D41D80E037
:1022900067E00E943F2186E094E060E00E94D41D48
:1022A0000DE030C0812F6F2D4D2D25E00E94DF0AFB
:1022B00080E066E00E943F2184E492E060E00E94BA
:1022C000D41D80E067E00E943F218AE592E060E053
:1022D0000E94D41DD0927F0710938E07F09284073E
:1022E00080918F076091850740917C07009184075A
:1022F000E0908E07C0907F0720E00E94E0040E94DB
:10230000E01305E080910E07815080930E078091C5
:10231000100782FD04C08091110782FFFDCE10924C
:10232000100780910E078F5F80930E070B3089F5A1
:102330001F5F1D3010F011E027C01230C1F48D2D49
:1023400090E00E946704882331F08DE18F1518F426
:102350003DE1F32E19C08D2D90E00E946704882383
:1023600099F48CE18F1580F42CE1F22E0DC014301D
:1023700031F0163021F0193011F01B3029F48EE1C4
:102380008F1510F49EE1F92E812F6F2D4D2D2BE02E
:102390003DC00C3069F5F3948FE18F1510F4FF24E4
:1023A000F394123099F48D2D90E00E9467048823F5
:1023B00019F08DE18F15A8F08D2D90E00E94670433
:1023C000882389F48CE18F1560F00DC0143031F052
:1023D000163021F0193011F01B3029F48FE1F81676
:1023E00011F4FF24F394812F6F2D4D2D2CE00EC09E
:1023F0000D3071F48D2D90E0019664E670E00E943E
:10240000A92AD82E812F6F2D4D2D2DE00E94DF0A95
:1024100080910E07815080930E078091110782FFF3
:102420007BCE80ED97E0FE013197F1F70197D9F768
:1024300073CEDF91CF911F910F91FF90EF90DF90BE
:10244000CF90BF90089526982E9A81E080936800DF
:10245000EBE6F0E080818064808382E080937C0002
:1024600010927B00EAE7F0E08EE880838081806450
:102470008083089580917A00877F80937A0080918D
:102480007A00806480937A0080917A0084FFFCCF88
:102490002091780030917900C90108951F920F9220
:1024A0000FB60F9211242F933F934F935F936F9327
:1024B0007F938F939F93AF93BF93EF93FF93789402
:1024C000809178009091790022E0803E920728F078
:1024D0001092110710920F0773C022E08336920703
:1024E00098F180910F0782FD6BC080E29EE4019716
:1024F000F1F70E943A12825692408E37910508F009
:102500005FC082E08093120712C00E943A12825686
:1025100092408E37910558F080910F078B7F809302
:102520000F078091100784608093100749C0809145
:102530001207882351F780910F07846080930F075B
:102540008091110784603AC08F509140E8F08091EB
:102550000F0781FD10C080E29EE40197F1F70E9411
:102560003A128E5091408555914050F58091100758
:1025700082608093100780910F07826080930F071D
:102580008091110782601AC080910F0780FD0EC0F4
:1025900080E29EE40197F1F70E943A128F50914039
:1025A00078F48091100781608093100780910F0765
:1025B000816080930F0780911107816080931107DC
:1025C00080917A00886480937A00FF91EF91BF91A7
:1025D000AF919F918F917F916F915F914F913F91BB
:1025E0002F910F900FBE0F901F9018951F920F9272
:1025F0000FB60F9211242F933F934F935F936F93D6
:102600007F938F939F93AF93BF93EF93FF937894B0
:102610000E949E04FF91EF91BF91AF919F918F9186
:102620007F916F915F914F913F912F910F900FBECE
:102630000F901F9018952F923F924F925F926F923A
:102640007F928F929F92AF92BF92CF92DF92EF9242
:10265000FF920F931F93209015073090160740901C
:102660001707509018076090190770901A0780900C
:102670001B0790901C07AA24BB246501F501E37099
:10268000F070EE0FFF1FEE0FFF1FED56F84FE080CA
:10269000F18002811381EA0CFB1C0C1D1D1DD4016D
:1026A000C30175E0B695A795979587957A95D1F76B
:1026B000A401930164E0220F331F441F551F6A9544
:1026C000D1F782279327A427B527860D971DA81D2C
:1026D000B91DE826F9260A271B272E0C3F1C401E91
:1026E000511E89EB99E7A7E3BEE9A80EB91ECA1EE1
:1026F000DB1EA2019101F5E0569547953795279588
:10270000FA95D1F7D201C101E4E0880F991FAA1F01
:10271000BB1FEA95D1F7282739274A275B27220DC7
:10272000331D441D551DD601C5017BE0B695A79507
:10273000979587957A95D1F783709070880F991F38
:10274000880F991F8D56984FFC0180819181A2813D
:10275000B3818A0D9B1DAC1DBD1D282739274A2733
:102760005B27620E731E841E951EF0E2AF16F7E320
:10277000BF06FFEECF06F6ECDF0609F07FCF209212
:10278000150730921607409217075092180760926B
:10279000190770921A0780921B0790921C071F91CD
:1027A0000F91FF90EF90DF90CF90BF90AF909F90F0
:1027B0008F907F906F905F904F903F902F900895F3
:1027C000EF92FF920F931F938EE691E7A9EEBDE281
:1027D0008093930790939407A0939507B0939607DF
:1027E00081ED9DEDAFE3B9E980939707909398074A
:1027F000A0939907B0939A0787E59BEFA7E7BAE202
:1028000080939B0790939C07A0939D07B0939E078E
:1028100080EB96EEA2E7B1EB80939F079093A00721
:10282000A093A107B093A207109215071092160764
:1028300010921707109218071092190710921A0792
:1028400010921B0710921C070E941B13E09089072F
:10285000FF2400E010E0102F0F2DFE2CEE248091BD
:102860007C0790E0A0E0B0E0E82AF92A0A2B1B2BB5
:10287000102F0F2DFE2CEE248091850790E0A0E014
:10288000B0E0E82AF92A0A2B1B2B102F0F2DFE2C63
:10289000EE2480918F0790E0A0E0B0E0E82AF92ACA
:1028A0000A2B1B2B8091190790911A07A0911B07E7
:1028B000B0911C07880F991FAA1FBB1F2091930777
:1028C000309194074091950750919607822793275E
:1028D000A427B5278093930790939407A093950717
:1028E000B09396070E941B13D801C701880F991F48
:1028F000AA1FBB1F20919707309198074091990715
:1029000050919A0782279327A427B527809397078A
:1029100090939807A0939907B0939A070E941B136E
:1029200016950795F794E79480919B0790919C07E3
:10293000A0919D07B0919E07E826F9260A271B273C
:10294000E0929B07F0929C0700939D0710939E07CF
:102950000E941B138091190790911A07A0911B07E1
:10296000B0911C07B695A7959795879520919F07DD
:102970003091A0074091A1075091A2078227932789
:10298000A427B52780939F079093A007A093A10742
:10299000B093A2070E941B13E0908007FF2400E081
:1029A00010E0102F0F2DFE2CEE2480918E0790E06A
:1029B000A0E0B0E0E82AF92A0A2B1B2B102F0F2DDC
:1029C000FE2CEE248091840790E0A0E0B0E0E82A9D
:1029D000F92A0A2B1B2B102F0F2DFE2CEE24809191
:1029E0007F0790E0A0E0B0E0E82AF92A0A2B1B2B31
:1029F000D801C701880F991FAA1FBB1F20919307F9
:102A0000309194074091950750919607822793271C
:102A1000A427B5278093930790939407A0939507D5
:102A2000B09396070E941B1380911507909116078B
:102A3000A0911707B0911807880F991FAA1FBB1FF5
:102A400020919707309198074091990750919A07E4
:102A500082279327A427B5278093970790939807F9
:102A6000A0939907B0939A070E941B1380911507B2
:102A700090911607A0911707B0911807B695A795E2
:102A80009795879520919B0730919C0740919D07D2
:102A900050919E0782279327A427B52780939B07F1
:102AA00090939C07A0939D07B0939E070E941B13D1
:102AB00016950795F794E79480919F079091A0074A
:102AC000A091A107B091A207E826F9260A271B27A3
:102AD000E0929F07F092A0070093A1071093A2072E
:102AE00010921507109216071092170710921807E8
:102AF0001092190710921A0710921B0710921C07C8
:102B00000E941B131F910F91FF90EF900895982F33
:102B10008150823078F0A8950E941B1320911907EC
:102B200030911A07809115079091160728273927A9
:102B30003F7744C09130F9F48091190790911A07BA
:102B4000A0911B07B0911C07209115073091160723
:102B5000409117075091180782279327A427B5277C
:102B6000EFE0B695A79597958795EA95D1F79C01E3
:102B70002370307023C0923019F020E030E01EC086
:102B80008091190790911A07A0911B07B0911C071B
:102B9000209115073091160740911707509118079B
:102BA00082279327A427B52771E1B695A795979516
:102BB00087957A95D1F79C0121703070C9010895ED
:102BC0009091060780911407981731F181E0809366
:102BD0001307809106078093140780917C078093E8
:102BE000A307809185078093A40780918807882395
:102BF00021F080918807823039F480918E0780938C
:102C000092078091840706C0809184078093920781
:102C100080918E078093910780910607823089F119
:102C2000833018F4882341F03AC0833081F1853035
:102C3000B1F58091840731C080918A078823C1F063
:102C400080910307882321F480910407882381F071
:102C500080910407882329F0809186078093A30739
:102C600004C0809103078823D1F080917D0706C0BE
:102C700080917C078093A307809185078093A407A8
:102C80000EC084E18093920780917F0706C08091F7
:102C900089078093920780918007809391078091A4
:102CA0007E07882349F48091A3078D3028F06CE0DB
:102CB0000E94892A9093A30708950895CF93DF93E4
:102CC000C82FD0E0E42FF0E0E053F84F833010F449
:102CD0002C963197262F30E02F5F3F4F2E0F3F1F4E
:102CE000CE01880F991F280F391FCF019695879520
:102CF00096958795280F391FCF0160E971E00E94F2
:102D0000952A260F371FCF0164E670E00E94952AAE
:102D1000261B370BAE014F5F5F4FCA01880F991F0B
:102D2000840F951F880F991F6AE070E00E94952A12
:102D3000C901860F971F67E070E00E94952ADF9116
:102D4000CF9108950F931F93182F062F6AE00E94CA
:102D5000892A805D602F0E94641D812F6AE00E9495
:102D6000892A892F805D602F0E94641D1F910F9119
:102D700008951F93182F8DE48093F80581E061E09A
:102D80000E943F2180919207612F0E94A2168DE23E
:102D9000612F0E94641D80919107612F0E94A216ED
:102DA00089E560E00E943F2188E7612F0E94641D51
:102DB0008091A307612F0E94A2168091A407612F22
:102DC0000E94A21689E38093F8051F9108954F92FF
:102DD0005F926F927F928F929F92AF92BF92CF92AB
:102DE000DF92EF92FF920F931F93CF93DF93482EC2
:102DF000562E00E010E0E1E06E2E712C89E0489F35
:102E0000A00111247CE1872E74E0972E840E951E7C
:102E100064E2A62E64E0B62EA40EB51E14C088810E
:102E200090E08C219D21892B21F08F2D6E2D0E9409
:102E3000281F2196F394CA15DB0589F70F5F1F4FF2
:102E40000830110561F06301002E02C0CC0CDD1CBE
:102E50000A94E2F7E401F42CE52CE00EE0CFDF91D8
:102E6000CF911F910F91FF90EF90DF90CF90BF9087
:102E7000AF909F908F907F906F905F904F9008954C
:102E80009F92AF92BF92CF92DF92EF92FF920F93F9
:102E90001F93CF93DF93982EC62E00E010E0F1E051
:102EA000AF2EB12C17C0FE01E95CFB4F808190E092
:102EB0008E219F21892B29F0892D8C0F6D2D0E9449
:102EC000281F2196C830D10571F70F5F1F4F0830BA
:102ED000110561F07501002E02C0EE0CFF1C0A9472
:102EE000E2F7C0E0D0E0DC2CD00EDDCFDF91CF9157
:102EF0001F910F91FF90EF90DF90CF90BF90AF9018
:102F00009F9008959F92AF92BF92CF92DF92EF92DF
:102F1000FF920F931F93CF93DF93982EC62E00E05E
:102F200010E0A1E0AA2EB12C17C0FE01E05CFB4F1F
:102F3000808190E08E219F21892B29F0892D8C0F93
:102F40006D2D0E94281F2196C430D10571F70F5FA7
:102F50001F4F0430110561F07501002E02C0EE0C08
:102F6000FF1C0A94E2F7C0E0D0E0DC2CD00EDDCFED
:102F7000DF91CF911F910F91FF90EF90DF90CF9055
:102F8000BF90AF909F900895CF92DF92EF92FF9203
:102F90000F931F93CF93DF93E82EF62E09E414E0EE
:102FA00019C0C6010C2E02C0959587950A94E2F7C8
:102FB00080FF05C08E2D8C0F6F2D0E94281F21963B
:102FC000C031D10571F70E5F1F4FF39484E00935CE
:102FD000180731F0F801C080D180C0E0D0E0E1CF27
:102FE000DF91CF911F910F91FF90EF90DF90CF90E5
:102FF0000895AF92BF92CF92DF92EF92FF920F931C
:103000001F93CF93DF93EE2411E0A12EB12C2DC09E
:10301000FE01E55AFB4F808190E08C219D212E2DF1
:103020002C0F892B29F0822F6F2D0E94281F04C09E
:10303000822F6F2D0E94FE1E2196C830D10541F7C8
:103040000F5F1F4FF39480E4F81651F06501002ED6
:1030500002C0CC0CDD1C0A94E2F7C0E0D0E0D8CF6F
:1030600088E0E80E80E8E81629F000E010E0BAE316
:10307000FB2EECCFDF91CF911F910F91FF90EF903E
:10308000DF90CF90BF90AF9008956F927F928F9214
:103090009F92AF92BF92CF92DF92EF92FF920F93E7
:1030A0001F93CF93DF93682E762E8091200788237D
:1030B00021F481E08093200702C0109220078091C4
:1030C0002007442321F052E0D52ED80E01C0D82E7F
:1030D00080911F07882371F580911E07882351F581
:1030E00039C080911D0790E0FC0143E0EE0FFF1F07
:1030F0004A95E1F7E80FF91FEC0FFD1FEE0FFF1FD8
:10310000EC59FB4F808191818E219F21892B41F0C9
:1031100080911F0760911E076C0D8C0F0E94FE1E90
:103120002196C830D105E9F60F5F1F4F0031110518
:1031300031F410C000E010E091E0A92EB12CC02EB7
:103140007501002E02C0EE0CFF1C0A94E2F7C0E0ED
:10315000D0E0C7CF60921F0770921E07D0921D0764
:1031600000E010E081E0882E912C82E1D89E700171
:10317000112484E694E0E80EF91E15C08881998137
:103180008A219B21892B29F08D2D860D6C2D0E9483
:10319000281FD394229698E0D91681F70F5F1F4F0E
:1031A0000031110561F05401002E02C0AA0CBB1CB5
:1031B0000A94E2F7E701DD24C72CC00EDFCFDF91D0
:1031C000CF911F910F91FF90EF90DF90CF90BF9024
:1031D000AF909F908F907F906F9008958091290776
:1031E000882311F580912A07882359F48091F005EE
:1031F0006BE140E00E9445188091F0058F5F80935D
:10320000F00580912A07813059F48091F0056BE137
:1032100041E00E9445188091F00581508093F005AF
:1032200081E08093290702C0109229079091F00550
:103230009E3618F081E080932A07943510F410929E
:103240002A0708954F925F926F927F928F929F927A
:10325000AF92BF92CF92DF92EF92FF920F931F93A4
:10326000CF93DF93482E562EF42E87E0841778F400
:1032700088E0481709F487C089E0481719F415E079
:10328000F12E05C089E0841710F48CEFF80E8091C0
:103290002307882361F580912207882341F537C0F1
:1032A0008091210790E0FC01B3E0EE0FFF1FBA957B
:1032B000E1F7E80FF91FEC0FFD1FEA5FFA4F80817D
:1032C00090E08C219D21892B41F080912307609112
:1032D00022076E0D8C0F0E94FE1E2196C830D1056C
:1032E000F9F60F5F1F4F0031110531F410C000E0F7
:1032F00010E0A1E0AA2EB12CE02E6501002E02C044
:10330000CC0CDD1C0A94E2F7C0E0D0E0C9CF4092BB
:10331000230750922207F092210700E010E0F1E02D
:103320006F2E712C89E0F89EC0011124E6E08E2EEC
:10333000E5E09E2E880E991E7EE0A72E75E0B72E42
:10334000A80EB91E14C0888190E08C219D21892B84
:1033500021F08F2D6E2D0E94281F2196F394CA15FF
:10336000DB0589F70F5F1F4F0031110579F063010D
:10337000002E02C0CC0CDD1C0A94E2F7E401F42C10
:10338000E52CE00EE0CF66E0F62E81CFDF91CF9105
:103390001F910F91FF90EF90DF90CF90BF90AF9073
:1033A0009F908F907F906F905F904F900895409185
:1033B00028070E94221990912807943021F481E077
:1033C0008093130706C0933121F41092280780E000
:1033D00008959F5F9093280781E008956F927F92F0
:1033E0008F929F92AF92BF92CF92DF92EF92FF9215
:1033F0000F931F93CF93DF93682E762E809127072C
:10340000882321F481E08093270702C010922707C8
:1034100080912707442321F052E0D52ED80E01C019
:10342000D82E80912607882371F58091250788235F
:1034300051F539C08091240790E0FC0143E0EE0F84
:10344000FF1F4A95E1F7E80FF91FEC0FFD1FEE0F84
:10345000FF1FEA56FA4F808191818E219F21892B8F
:1034600041F080912607609125076C0D8C0F0E941A
:10347000FE1E2196C830D105E9F60F5F1F4F0C30B4
:10348000110531F410C000E010E091E0A92EB12C3C
:10349000C02E7501002E02C0EE0CFF1C0A94E2F74C
:1034A000C0E0D0E0C7CF6092260770922507D09287
:1034B000240700E010E081E0882E912C82E1D89E64
:1034C0007001112486E995E0E80EF91E15C0888187
:1034D00099818A219B21892B29F08D2D860D6C2DB8
:1034E0000E94281FD394229698E0D91681F70F5F87
:1034F0001F4F0C30110561F05401002E02C0AA0CC0
:10350000BB1C0A94E2F7E701DD24C72CC00EDFCF15
:10351000DF91CF911F910F91FF90EF90DF90CF90AF
:10352000BF90AF909F908F907F906F900895DF93A2
:10353000CF93CDB7DEB727970FB6F894DEBF0FBE97
:10354000CDBFDE011196E1EFF5E087E001900D922D
:103550008150E1F780910307882321F480910407CB
:10356000882339F0109203071092040781E08093BA
:103570002C0730912F07332329F4809131078D32A6
:1035800071F406C0313059F480913107873339F432
:1035900080912C07882319F081E080932B072EE27D
:1035A0002093300780912B07882311F180912C07FD
:1035B0008823F1F090912E07DE011196FD01E90FAD
:1035C000F11D8081281B209330079F5F90932E0769
:1035D000A90FB11D8C918C3019F481E080932D07D7
:1035E000973031F410922C0710922B0710922E076F
:1035F000332359F4809131076091300740E00E94F5
:10360000EE19809131078F5F0CC0313061F48091E9
:1036100031076091300741E00E94EE198091310737
:1036200081508093310790913107983418F081E0F0
:1036300080932F07992311F410922F0780912D0763
:10364000882331F082E360E10E94D71980932D072F
:1036500027960FB6F894DEBF0FBECDBFCF91DF9196
:1036600008950E94971A0E94EE1880E49CE9019741
:10367000F1F708951F93182F0E94311B0E94E01547
:1036800080911307882329F010921307812F0E943D
:10369000B9161F9108950F931F93182F80E060E0D3
:1036A00040E820E4012F0E94E51D83E68093140783
:1036B0000E94E01580E060E00E943F218DE480934D
:1036C000F80587E5612F0E94641D8FE4612F0E9439
:1036D000641D82E5612F0E94641D8CE4612F0E94AD
:1036E000641D84E4612F0E94641D89E38093F805C2
:1036F00080E560E00E944017812F0E94B91680E5A6
:103700006BE24CE224E10E94D51E80E56BE20E9450
:10371000FE1E8BE76BE20E94FE1E82E56DE20E94B8
:10372000821786E76DE20E9482170E94F91781E4F2
:103730006BE00E94C41782E36AE141E00E94E71651
:103740001F910F9108959093C5008093C40088E164
:103750008093C1008EE08093C200519A50980895E2
:1037600006C090E000009F5F9E31E1F78150882302
:10377000C1F7089548EC50E009C020E137E2FA01B2
:103780003197F1F721503040D1F781508823A9F7C4
:103790000895982F8091C00085FFFCCF9093C600BC
:1037A00080E090E008958091C00087FFFCCF809179
:1037B000C60008958091C00080780895AC0120E093
:1037C00007C08091C00085FFFCCF3093C6002F5FFB
:1037D000FA01E20FF11D3491332399F7662371F05A
:1037E0008091C00085FFFCCF8AE08093C600809165
:1037F000C00085FFFCCF8DE08093C6000895FC01DA
:1038000007C08091C00085FFFCCF31969093C60021
:1038100090819923B1F70895282F982F92959F7042
:103820009A3030F48091C00085FFFCCF905D05C0D8
:103830008091C00085FFFCCF995A9093C600822FDB
:1038400090E08F7090700A973CF48091C00085FFE3
:10385000FCCF2F70205D06C08091C00085FFFCCF9B
:103860002F70295A2093C60008951F93182F892F6F
:103870000E940C1C812F0E940C1C1F910895EF9236
:10388000FF920F931F937B018C01C801AA27BB27CE
:103890000E94351CC7010E94351C1F910F91FF909B
:1038A000EF9008950F931F93CF93DF938C01E0E186
:1038B000F7E240E0C0E0D0E0C801BF010E94952AD5
:1038C000262F662329F4442319F4E130F10549F445
:1038D0008091C00085FFFCCF205D2093C60020535F
:1038E00041E0CF016AE070E00E94952A2196C53040
:1038F000D10571F0822F90E09C012E9FC0012F9F77
:10390000900D3E9F900D1124081B190BFB01D4CF85
:10391000DF91CF911F910F9108951F93CF93DF9364
:10392000482F87FF08C08091C00085FFFCCF8DE243
:103930008093C6004195E4E6F0E010E0C0E0D0E0FE
:10394000842F992787FD9095BF010E94952A262FE5
:1039500016162CF0112319F4E130F10549F4809189
:10396000C00085FFFCCF205D2093C600205311E0EE
:10397000CF016AE070E00E94952A2196C330D105FC
:1039800031F02E9F802D1124481BFB01D9CFDF91F0
:10399000CF911F9108954F925F926F927F928F9275
:1039A0009F92AF92BF92CF92DF92EF92FF920F93CE
:1039B0001F93CF93DF934B015C01E12C9AECF92E1E
:1039C0009AE9092F9BE3192F4424C0E0D0E0C501F8
:1039D000B401A80197010E94BC2AD22E222341F4EF
:1039E000442031F481E0E816F1040105110561F489
:1039F0008091C00085FFFCCF80E3D80ED092C60036
:103A000080EDD80E44244394C801B7012AE030E089
:103A100040E050E00E94BC2AC22E732E642E552E28
:103A20002196CA30D105A9F06D2D70E080E090E0BC
:103A3000A80197010E946A2A861A970AA80AB90A59
:103A40002C2D372D462D552DC901DA017C018D0114
:103A5000BECFDF91CF911F910F91FF90EF90DF903C
:103A6000CF90BF90AF909F908F907F906F905F901E
:103A70004F90089508950F931F93CF93DF93482F8E
:103A800030E020E007C088599F4FFC0184918F5F90
:103A9000280F3F5F822F90E03417A8F3FC01E8590C
:103AA000FF4F0491EC01C759DF4F10E006C0FE0143
:103AB00084910E94E6201F5F21961017C0F3DF91CA
:103AC000CF911F910F9108959F92AF92BF92CF9285
:103AD000DF92EF92FF920F931F93CF93DF93982F74
:103AE000962E8091F8058D3419F457E0A52E02C06A
:103AF00045E0A42E892F90E08C01000F111F000FCC
:103B0000111F080F191F025D1F4FEC0123E0CC0F9E
:103B1000DD1F2A95E1F7C81BD90BC253DE4F6801A0
:103B20007E01BB24992079F08091F805893319F43E
:103B3000F601849106C08091F8058D3499F4F7015F
:103B4000849180950DC08091F805893319F4F801AE
:103B5000849106C08091F8058D3421F4FE01849192
:103B60000E94E620B3940F5F1F4F21960894C11C5A
:103B7000D11C0894E11CF11CBA14A0F2992011F098
:103B80008FEF01C080E00E94E62080E00E94322199
:103B9000DF91CF911F910F91FF90EF90DF90CF9029
:103BA000BF90AF909F9008951F93CF93DF93EC0148
:103BB000162F04C0612F0E94641D219688818823DE
:103BC000C9F7DF91CF911F9108952F923F924F92A5
:103BD0005F926F927F928F929F92AF92BF92CF929D
:103BE000DF92EF92FF920F931F93CF93DF93282ED4
:103BF000162F342EF22E402EC62FD0E0C770D07074
:103C0000209709F45BC0562E569456945694EE2491
:103C1000F7E0CF2EC6228C2C992487FC90945E016D
:103C2000A20EB11CE1E06E2E712C35C0DE2CD20C40
:103C30008D2D652D0E943F210E9499200E94992080
:103C4000082F40E050E015C081E0481641F4C30160
:103C500002C0880F991F2A95E2F7082B08C0C301FC
:103C600002C0880F991F2A95E2F7809508234F5FBD
:103C70005F4F9A01280D391D2A153B0524F48C2D20
:103C8000840F883009F78D2D652D0E943F21802FEC
:103C90000E94E620E394E31448F22F2D30E088E000
:103CA00090E08C1B9D0B8217930714F0FF2404C037
:103CB000812F87708850F80E187F185FE12EE694E8
:103CC000E694E694C12FD0E0CF0DD11D73E0D595D9
:103CD000C7957A95E1F712C0822D6E2D0E943F2183
:103CE00010E009C081E0481611F48FEF01C080E0B8
:103CF0000E94E6201F5F1315A8F3E3948E2D90E039
:103D00008C179D074CF32F2D2770C9F100E0C22FAF
:103D1000D0E061E0A62EB12C30C0F02EF20C8F2D39
:103D20006E2D0E943F210E9499200E949920182FF9
:103D300020E030E017C081E0481649F4C501022EAA
:103D400002C0880F991F0A94E2F7182B09C0C50119
:103D5000022E02C0880F991F0A94E2F7809518235B
:103D60002F5F3F4F2C173D0734F38F2D6E2D0E9490
:103D70003F21812F0E94E6200F5F031570F280E043
:103D80000E943221DF91CF911F910F91FF90EF9010
:103D9000DF90CF90BF90AF909F908F907F906F906B
:103DA0005F904F903F902F900895DF92EF92FF9297
:103DB0000F931F93F82E162FD42EE22E41E001E030
:103DC0000E94E51D8F2D81508D0D612F41E02E2D1C
:103DD0000E94E51D8F2D612F4D2D21E00E94E51DD4
:103DE00011501E0D8F2D612F4D2D21E00E94E51DDC
:103DF0001F910F91FF90EF90DF900895EF92FF9247
:103E00000F931F93F82E162F062F069506950695ED
:103E1000602F0E943F210E9499200E949920E82E45
:103E20008F2D602F0E943F21177081E090E002C02B
:103E3000880F991F1A95E2F780958E210E94E6203F
:103E400080E00E9432211F910F91FF90EF90089522
:103E5000EF92FF920F931F93F82E162F062F0695C1
:103E600006950695602F0E943F210E9499200E948E
:103E70009920E82E8F2D602F0E943F21177081E03E
:103E800090E002C0880F991F1A95E2F78E290E94D0
:103E9000E62080E00E9432211F910F91FF90EF9069
:103EA00008953F924F925F926F927F928F929F926E
:103EB000AF92BF92CF92DF92EF92FF920F931F9338
:103EC000CF93DF93D82EC62E322E462E481AE42EDC
:103ED000FF24C701880F991FCC27DD27C81BD90BEA
:103EE00023965D2C662E762EAA24BB248824992442
:103EF00081E0381641F50E2D0C0D8D2D602F0E949E
:103F0000281F9C2D9E19192F8D2D692F0E94281F67
:103F1000852D602F0E94281F852D612F0E94281F4C
:103F20000419802F662D0E94281F802F672D0E9464
:103F3000281F1419812F662D0E94281F812F672D9D
:103F40000E94281F27C00E2D0C0D8D2D602F0E9462
:103F5000FE1E8C2D8E19182F8D2D612F0E94FE1E96
:103F6000852D602F0E94FE1E852D612F0E94FE1E52
:103F70000419802F662D0E94FE1E802F672D0E943F
:103F8000FE1E1419812F662D0E94FE1E812F672DA3
:103F90000E94FE1ED7FF04C02696C80DD91D0DC075
:103FA0002A96C5018E199F09880F991F880F991F9E
:103FB000C80FD91F0894E108F1080894A11CB11C8E
:103FC00084E090E0880E991ED3945A9463947A9476
:103FD000EA14FB040CF08CCFDF91CF911F910F916D
:103FE000FF90EF90DF90CF90BF90AF909F908F9019
:103FF0007F906F905F904F903F9008952F982D98ED
:104000002C9840985A98279A259A249A389A529A26
:104010008BB18F708BB985B1807F85B98AB1806F84
:104020008AB984B18F6084B9089540985A988823DA
:1040300019F0813021F402C0409A08955A9A0895E7
:10404000F8940E9415208BB1806F8BB985B18F6079
:1040500085B92F988AB18F708AB984B1807F84B96D
:104060002D9A2C9A000000000AC02C980000000035
:10407000000000002C9A000000000000000089B140
:1040800093B187FDF2CF2C982D988AB1806F8AB9B1
:1040900084B18F6084B9789408951F93162FF89493
:1040A0000E9420202F982D982C9A8AB1806F8AB96F
:1040B00084B18F6084B98BB18F708BB99BB1812F24
:1040C000807F892B8BB985B1807F85B985B11F70C1
:1040D000812B85B9000000000000000000000000F6
:1040E000000000002C9878941F910895F8940E9485
:1040F00020202F988AB18F708AB984B1807F84B9CB
:104100002D9A2C9A00000000000000000000000022
:104110000000000029B183B12C982D989AB1906FBE
:104120009AB994B19F6094B978948F70207F822B54
:104130000895F8948091A507829586958695837059
:104140000E9420202F9A8AB18F708AB984B1807F13
:1041500084B92D9A2C9A0000000000000000000095
:1041600000000000000099B183B12C982D9878943C
:104170008F70907F892B089508958093A50780E024
:1041800060E40E944D201092A70781E060E40E9445
:104190004D201092A9078091A507682F6F73606466
:1041A00082958695869583700E944D2008951F9371
:1041B000182F8093A607186B80E0612F0E944D2076
:1041C00081E0612F0E944D201F9108950F931F934E
:1041D000182F0091A5070295069506950370F8948F
:1041E000802F0E9420202F9A2D982C9A8AB1806FC0
:1041F0008AB984B18F6084B98BB18F708BB99BB150
:10420000812F807F892B8BB985B1807F85B985B15E
:104210001F70812B85B90000000000000000000025
:104220000000000000002C987894E02FF0E0EE0FE2
:10423000FF1FE955F84F80818F5F80838091A5072C
:104240008F5F8093A50787FF0AC08091A6078F5FC5
:104250008093A6070E94D72080E00E94BD201F9176
:104260000F9108951F93182F106C80E0612F0E940A
:104270004D2081E0612F0E944D201F9108951F93D2
:10428000182F862F0E94D720812F0E94BD201F91BA
:1042900008950F931F9300E080E0602F0E943F215C
:1042A00010E080E00E94E6201F5F1038D1F70F5F1A
:1042B000083091F71F910F91089580E00E943221FC
:1042C00080E060E00E943F211092A7071092A807AB
:1042D0001092A9071092AA0708950E94FE1F80E07D
:1042E0006FE30E944D2081E06FE30E944D200E9409
:1042F00049210E945D210895982F86E0689F802DB6
:104300001124692F0E943F2108950895459A449AE7
:10431000109279071092780710927B0710927A0713
:1043200080E28093B800ECEBF0E0808184608083D1
:1043300010923207808181608083808180648083D5
:104340007894089580E28093B800089590E0611118
:1043500091E08E7F982B9093BA00089590937907FF
:1043600080937807089590937B0780937A07089548
:10437000ECEBF0E080818F70806A80830895ECEB35
:10438000F0E080818F70806D808308958091BC0003
:1043900087FFFCCF08958093BB00ECEBF0E08081B9
:1043A0008F70806880830895882329F08091BC00F5
:1043B0008F70806C04C08091BC008F708068809387
:1043C000BC0008958091BB0008958091B9000895C4
:1043D000982F809132078823E1F782E0809332079B
:1043E0009E7F90933307A4E3B7E0FA0102C0819166
:1043F0008D938E2F841B8617D0F3109254076093F1
:1044000055078091BC008F70806A8093BC0008952E
:10441000982F809132078823E1F783E08093320759
:10442000916090933307109276076093770780919D
:10443000BC008F70806A8093BC0080913207882313
:10444000E1F7A6E5B7E0FA0102C08D9181938E2FC6
:10445000841B8617D0F30895982FFA018091BC0031
:104460008E7F8093BC008091BC008F70806A8093A7
:10447000BC008091BC0087FFFCCF9E7F9093BB0067
:104480008091BC008F7080688093BC008091BC00DC
:1044900087FFFCCF8091B900883189F091E012C08C
:1044A00080818093BB008091BC008F708068809376
:1044B000BC008091BC0087FFFCCF31966150662321
:1044C00079F790E08091BC008F70806D8093BC0084
:1044D0008091BC0084FFFCCF8091BC008160809300
:1044E000BC00892F08951F93CF93DF93982F162F29
:1044F000EA018091BC008E7F8093BC008091BC005B
:104500008F70806A8093BC008091BC0087FFFCCFD5
:1045100091609093BB008091BC008F708068809305
:10452000BC008091BC0087FFFCCF8091B900803433
:1045300069F091E018C08FEF0E94D4218091BC00F7
:1045400087FFFCCF8091BB0089931150123098F700
:1045500080E00E94D4218091BC0087FFFCCF809135
:10456000BB00888390E08091BC008F70806D809349
:10457000BC008091BC0081608093BC00892FDF91DA
:10458000CF911F9108958091320708951F920F9245
:104590000FB60F9211242F933F934F935F936F9316
:1045A0007F938F939F93AF93BF93EF93FF938091EC
:1045B000B900887F883609F4CBC0893688F5803306
:1045C00009F495C08133B0F4803109F45AC08131C7
:1045D00038F4882309F43EC1883009F048C151C03D
:1045E000803209F484C0883209F453C0883109F05C
:1045F0003EC14FC0883409F47AC0893438F4883316
:1046000009F478C0803409F032C192C0883509F4C9
:104610005DC0803609F49CC0803509F028C174C0A3
:10462000803A09F4BEC0813AB0F4803809F49BC0E6
:10463000813838F4803709F48BC0883709F017C106
:1046400087C0803909F48FC0883909F4A1C088383F
:1046500009F00DC19DC0883B09F4D1C0893B38F4F5
:10466000883A09F4B6C0803B09F001C1B2C0883C69
:1046700009F4E0C0883F09F4E7C0803C09F0F7C0C6
:10468000D9C08BE996E060E00E94DE1B8091330781
:1046900014C08CE796E060E00E94DE1B9091540706
:1046A00080915507981708F0DAC0E92FF0E0EC5C2C
:1046B000F84F80819F5F909354078093BB00809157
:1046C000BC008F7080688093BC00D1C087E696E004
:1046D00060E00E94DE1B809176079091BB00E82F7E
:1046E000F0E0EA5AF84F90838F5F8093760781E479
:1046F00096E0B2C08DE296E060E00E94DE1B809101
:10470000BC008F708068AFC089E196E060E00E94D5
:10471000DE1B8091BB0090917607E92FF0E0EA5A0A
:10472000F84F80839F5F9093760790E00E94351C3E
:1047300086E096E060E00E94DE1B2091760730E084
:104740008091770790E001972817390734F51EC04C
:1047500083EF95E060E00E94DE1B85E080933207E6
:104760001092760762C08FED95E060E00E94DE1B3C
:10477000809176079091BB00E82FF0E0EA5AF84F5D
:1047800090838F5F80937607803238F48FEF06C076
:104790008AEC95E060E00E94DE1B80E00E94D4215C
:1047A00066C087EB95E060E00E94DE1B8091BC0054
:1047B0008F70806C8093BC00E0917807F09179074E
:1047C000309709F452C08091760766E577E0099545
:1047D0004CC084EA95E060E00E94DE1B84E0809398
:1047E0003207E0917A07F0917B07309731F080E251
:1047F00064E377E00995809355071092540780E9A8
:1048000095E060E00E94DE1B90915407E92FF0E0F4
:10481000EC5CF84F80818093BB009F5F90935407BE
:1048200080915507981708F04ACF8091BC008F708F
:10483000806C49CF8EE695E060E00E94DE1B80919F
:10484000BC008F70806C0FC08FE595E060E00E9427
:10485000DE1B0DC08EE495E060E00E94DE1B8091BF
:10486000BC008F70806D8093BC0010923207FF9166
:10487000EF91BF91AF919F918F917F916F915F91D8
:104880004F913F912F910F900FBE0F901F90189551
:10489000EF92FF920F931F937B018C0120E030E099
:1048A00040E05FE40E94482788238CF0C801B701EC
:1048B00020E030E040E05FE40E94C0250E94A8278D
:1048C0009B01AC01205030404040504806C0C80118
:1048D000B7010E94A8279B01AC01B901CA011F9131
:1048E0000F91FF90EF900895A0E0B0E0EAE7F4E2C6
:1048F0000C94F92ADC012B01FA019C91923008F406
:1049000039C1EB018881823008F433C1943069F4F5
:10491000843009F02FC111969C91119789819817C5
:1049200009F428C1A9EFB5E025C1843009F421C1FB
:104930008230A9F4923009F01DC19A01AD0188E0DE
:10494000EA010990AE01E90109929E018150C1F787
:10495000E201898111969C918923818308C192305B
:1049600009F407C112962D903C901397EB018A81B0
:104970009B811496AD90BD90CD90DC901797EC8004
:10498000FD800E811F819101281B390BB90137FF72
:1049900004C066277727621B730B603271050CF029
:1049A00061C0121613066CF537014801062E04C0CB
:1049B00096948794779467940A94D2F721E030E034
:1049C00040E050E004C0220F331F441F551F6A957A
:1049D000D2F721503040404050402E213F2140230B
:1049E0005123211531054105510521F021E030E029
:1049F00040E050E079018A01E628F72808291929C2
:104A00003CC0232BD1F1260E371E35014601062E60
:104A100004C096948794779467940A94D2F721E01F
:104A200030E040E050E004C0220F331F441F551F08
:104A30006A95D2F721503040404050402A213B2116
:104A40004C215D21211531054105510521F021E061
:104A500030E040E050E059016A01A628B728C82894
:104A6000D9280BC0821593052CF01C01AA24BB2465
:104A7000650103C0EE24FF24870111969C91D201A9
:104A800011968C91981709F445C0992339F0A80123
:104A900097012A193B094C095D0906C0A601950139
:104AA0002E193F09400B510B57FD08C0118233826C
:104AB000228224833583468357831DC081E081830E
:104AC0003382228288279927DC01821B930BA40B57
:104AD000B50B84839583A683B7830DC0220F331F44
:104AE000441F551F248335834683578382819381D6
:104AF0000197938382832481358146815781DA012E
:104B0000C9010197A109B1098F5F9F4FAF4FBF4303
:104B100028F30BC0918333822282EA0CFB1C0C1D0C
:104B20001D1DE482F5820683178383E08083248140
:104B300035814681578157FF1AC0C901AA2797FDC1
:104B4000A095BA2F81709070A070B070569547955F
:104B500037952795822B932BA42BB52B8483958394
:104B6000A683B78382819381019693838283DF0139
:104B700001C0D201CD01CDB7DEB7E2E10C94152B17
:104B8000A0E2B0E0E6ECF5E20C94052B69837A83B1
:104B90008B839C832D833E834F835887E9E0EE2EE1
:104BA000F12CEC0EFD1ECE010196B7010E94992951
:104BB0008E010F5E1F4FCE010596B8010E94992904
:104BC0008A8991E089278A8BC701B801AE01475EC7
:104BD0005F4F0E9474240E94C428A096E6E00C94C3
:104BE000212BA0E2B0E0E7EFF5E20C94052B6983FE
:104BF0007A838B839C832D833E834F835887F9E090
:104C0000EF2EF12CEC0EFD1ECE010196B7010E9495
:104C100099298E010F5E1F4FCE010596B8010E94A3
:104C20009929C701B801AE01475E5F4F0E94742405
:104C30000E94C428A096E6E00C94212BA0E2B0E0EC
:104C4000E4E2F6E20C94F92A69837A838B839C83ED
:104C50002D833E834F835887CE010196BE01675F47
:104C60007F4F0E949929CE010596BE016F5E7F4F4E
:104C70000E9499299985923088F089898230C8F0FC
:104C8000943019F4823051F404C0843029F4923005
:104C900081F489EF95E0C6C0923049F420E09A850E
:104CA0008A89981321E02A87CE010996BBC08230F9
:104CB00049F420E09A858A89981321E02A8BCE0155
:104CC0004196B0C02D843E844F8458886D887E887C
:104CD0008F88988CEE24FF248701AA24BB246501C9
:104CE00040E050E060E070E0E0E0F0E0C1018170A1
:104CF0009070892BE9F0E60CF71C081D191D9A012C
:104D0000AB012A0D3B1D4C1D5D1D80E090E0A0E035
:104D1000B0E0E614F7040805190520F481E090E0FE
:104D2000A0E0B0E0BA01A901480F591F6A1F7B1F1C
:104D3000AA0CBB1CCC1CDD1C97FE08C081E090E0D7
:104D4000A0E0B0E0A82AB92ACA2ADB2A3196E032CC
:104D5000F10549F0660C771C881C991C5694479401
:104D600037942794C3CFFA85EA892B893C898B85B0
:104D70009C85280F391F2E5F3F4F17C0CA018170D5
:104D80009070892B61F016950795F794E79480E071
:104D900090E0A0E0B0E8E82AF92A0A2B1B2B7695D0
:104DA0006795579547952F5F3F4F77FDE7CF0CC02D
:104DB000440F551F661F771F17FD4160EE0CFF1C47
:104DC000001F111F21503040403090E0590790E003
:104DD000690790E4790760F32B8F3C8FDB01CA01F0
:104DE0008F779070A070B07080349105A105B105E7
:104DF00061F447FD0AC0E114F1040105110529F031
:104E0000405C5F4F6F4F7F4F40781A8EFE1711F056
:104E100081E08A8F4D8F5E8F6F8F78A383E0898FBB
:104E2000CE0149960E94C428A096E2E10C94152B6D
:104E3000A8E1B0E0EEE1F7E20C94052B69837A83F8
:104E40008B839C832D833E834F83588789E0E82E94
:104E5000F12CEC0EFD1ECE010196B7010E9499299E
:104E60008E010F5E1F4FCE010596B8010E94992951
:104E70008985823040F08989823028F0C701B801E5
:104E80000E94112A01C08FEF6896E6E00C94212B56
:104E9000A8E1B0E0EEE4F7E20C94052B69837A8395
:104EA0008B839C832D833E834F83588789E0E82E34
:104EB000F12CEC0EFD1ECE010196B7010E9499293E
:104EC0008E010F5E1F4FCE010596B8010E949929F1
:104ED0008985823040F08989823028F0C701B80185
:104EE0000E94112A01C08FEF6896E6E00C94212BF6
:104EF000A8E1B0E0EEE7F7E20C94052B69837A8332
:104F00008B839C832D833E834F83588789E0E82ED3
:104F1000F12CEC0EFD1ECE010196B7010E949929DD
:104F20008E010F5E1F4FCE010596B8010E94992990
:104F30008985823040F08989823028F0C701B80124
:104F40000E94112A01C081E06896E6E00C94212BB2
:104F5000ACE0B0E0EEEAF7E20C94092B69837A83C7
:104F60008B839C83CE010196BE016B5F7F4F0E94B5
:104F700099298D81823061F1823050F1843021F4A1
:104F80008E81882351F12EC02F81388537FD20C0B6
:104F90006E812F3131051CF06623F9F023C08EE1BC
:104FA00090E0821B930B29853A854B855C8504C074
:104FB00056954795379527958A95D2F76623B1F090
:104FC00050954095309521953F4F4F4F5F4F0EC004
:104FD00020E030E040E050E009C02FEF3FEF4FEF1E
:104FE0005FE704C020E030E040E050E8B901CA01CA
:104FF0002C96E2E00C94252BA8E0B0E0E2E0F8E289
:105000000C94012B7B018C016115710581059105C3
:1050100019F482E0898360C083E089838EE1C82E21
:10502000D12CDC82CB82ED82FE820F831887C801EF
:10503000B7010E947528FC013197F7FF3BC022277A
:1050400033272E1B3F0B57016801022E04C0D69454
:10505000C794B794A7940A94D2F740E050E060E078
:1050600070E081E090E0A0E0B0E004C0880F991FFC
:10507000AA1FBB1F2A95D2F70197A109B1098E215A
:105080009F21A023B1230097A105B10521F041E0A4
:1050900050E060E070E04A295B296C297D294D834E
:1050A0005E836F8378878EE190E08E1B9F0B9C83DD
:1050B0008B8312C0309781F00E2E04C0EE0CFF1CC3
:1050C000001F111F0A94D2F7ED82FE820F8318870A
:1050D000CE1ADF0ADC82CB821A82CE0101960E94B0
:1050E000C4282896EAE00C941D2BEF92FF920F93B0
:1050F0001F937B018C0180E0E81680E0F80681E0D8
:10510000080780E0180788F48FEFE816F10401051E
:10511000110531F028F088E090E0A0E0B0E017C081
:1051200080E090E0A0E0B0E012C080E0E81680E00F
:10513000F80680E0080781E0180728F088E190E091
:10514000A0E0B0E004C080E190E0A0E0B0E020E2A8
:1051500030E040E050E0281B390B4A0B5B0B04C0E9
:1051600016950795F794E7948A95D2F7F701EF5FC4
:10517000F94F8081281B310941095109C9011F914B
:105180000F91FF90EF900895DF92EF92FF920F93AF
:105190001F93FC01E480F58006811781D180808116
:1051A000823048F480E090E0A0E1B0E0E82AF92AFB
:1051B0000A2B1B2BA5C0843009F49FC0823021F438
:1051C000EE24FF24870105C0E114F1040105110557
:1051D00019F4E0E0F0E096C0628173819FEF6238DD
:1051E00079070CF05BC022E83FEF261B370B2A3112
:1051F00031052CF020E030E040E050E02AC0B8015A
:10520000A701022E04C076956795579547950A9495
:10521000D2F781E090E0A0E0B0E004C0880F991FD1
:10522000AA1FBB1F2A95D2F70197A109B1098E21A8
:105230009F21A023B1230097A105B10521F081E0B2
:1052400090E0A0E0B0E09A01AB01282B392B4A2B6B
:105250005B2BDA01C9018F779070A070B070803439
:105260009105A105B10539F427FF09C0205C3F4F26
:105270004F4F5F4F04C0215C3F4F4F4F5F4FE0E007
:10528000F0E02030A0E03A07A0E04A07A0E45A0787
:1052900010F0E1E0F0E079018A0127C06038710583
:1052A00064F5FB01E158FF4FD801C7018F7790707B
:1052B000A070B07080349105A105B10539F4E7FE06
:1052C0000DC080E490E0A0E0B0E004C08FE390E087
:1052D000A0E0B0E0E80EF91E0A1F1B1F17FF05C073
:1052E00016950795F794E794319687E016950795FC
:1052F000F794E7948A95D1F705C0EE24FF2487013F
:10530000EFEFF0E06E2F679566276795902F9F77F8
:10531000D794DD24D7948E2F8695492F462B582F6E
:105320005D29B701CA011F910F91FF90EF90DF90A7
:105330000895FC01DB01408151812281622F6F774A
:1053400070E0221F2227221F9381892F880F822B32
:10535000282F30E0991F9927991F11969C93119738
:1053600021153105A9F5411551056105710511F4A6
:1053700082E037C082E89FEF13969C938E9312973A
:105380009A01AB0167E0220F331F441F551F6A9536
:10539000D1F783E08C930DC0220F331F441F551F9C
:1053A00012968D919C911397019713969C938E93CF
:1053B0001297203080E0380780E0480780E45807E3
:1053C00058F314962D933D934D935C93179708953E
:1053D0002F3F310579F4411551056105710519F427
:1053E00084E08C93089564FF03C081E08C9312C025
:1053F0001C9210C02F57304013963C932E93129757
:1054000083E08C9387E0440F551F661F771F8A95B2
:10541000D1F7706414964D935D936D937C931797B9
:1054200008951F93DC01FB019C91923008F447C062
:105430008081823008F443C0943051F411961C915D
:10544000843099F58181682F70E0611B71093FC03C
:10545000843021F0923031F48230B9F18181882397
:1054600089F12DC011961C9111978230F1F0818144
:105470001817D9F412962D913C911397828193813C
:105480008217930794F028173907BCF014968D9172
:105490009D910D90BC91A02D24813581468157812D
:1054A000281739074A075B0718F4112341F00AC08F
:1054B00082179307A407B50740F4112319F061E0A0
:1054C00070E005C06FEF7FEF02C060E070E0CB01DD
:1054D0001F910895629FD001739FF001829FE00D9C
:1054E000F11D649FE00DF11D929FF00D839FF00D63
:1054F000749FF00D659FF00D9927729FB00DE11D0F
:10550000F91F639FB00DE11DF91FBD01CF011124EB
:105510000895991B79E004C0991F961708F0961B0F
:10552000881F7A95C9F780950895AA1BBB1B51E186
:1055300007C0AA1FBB1FA617B70710F0A61BB70B03
:10554000881F991F5A95A9F780959095BC01CD01A8
:10555000089597FB092E07260AD077FD04D0E5DFD2
:1055600006D000201AF4709561957F4F0895F6F7E4
:10557000909581959F4F0895A1E21A2EAA1BBB1BFF
:10558000FD010DC0AA1FBB1FEE1FFF1FA217B3070F
:10559000E407F50720F0A21BB30BE40BF50B661F25
:1055A000771F881F991F1A9469F7609570958095E9
:1055B00090959B01AC01BD01CF01089597FB092E89
:1055C00005260ED057FD04D0D7DF0AD0001C38F4D2
:1055D00050954095309521953F4F4F4F5F4F08951F
:1055E000F6F790958095709561957F4F8F4F9F4FFF
:1055F00008952F923F924F925F926F927F928F9277
:105600009F92AF92BF92CF92DF92EF92FF920F9351
:105610001F93CF93DF93CDB7DEB7CA1BDB0B0FB65B
:10562000F894DEBF0FBECDBF09942A883988488818
:105630005F846E847D848C849B84AA84B984C884AE
:10564000DF80EE80FD800C811B81AA81B981CE0FA5
:10565000D11D0FB6F894DEBF0FBECDBFED0108958A
:10566000F999FECF92BD81BDF89A992780B508952A
:10567000262FF999FECF1FBA92BD81BD20BD0FB66E
:10568000F894FA9AF99A0FBE01960895F894FFCF0C
:1056900001526567696F6E3A200020202020205556
:1056A00053203132687200202020202055532032B0
:1056B0003468720020202020204555203132687245
:1056C00000202020202045552032346872002055CB
:1056D00053203132687220444F57002055532032F6
:1056E00034687220444F570020455520313268728B
:1056F00020444F5700204555203234687220444FD3
:10570000570020202031326872204C4F4E47002035
:10571000202032346872204C4F4E470031326820CE
:105720004C4F4E4720444F5700323468204C4F4E68
:105730004720444F57004A616E00466562004D6144
:105740007200417072004D6179004A756E004A75B1
:105750006C0041756700536570004F6374004E6FB5
:1057600076004465630053756E20004D6F6E200017
:105770005475652000576564200054687520004604
:10578000726920005361742000446174653A0020FE
:10579000202020200020202000436F6E666967755E
:1057A000726174696F6E204D656E7500536574206B
:1057B000416C61726D3A2020005365742054696D0C
:1057C000653A2000536574204261636B6C696768B9
:1057D000743A20005072657373204D454E55207405
:1057E0006F20616476616E6365005072657373202B
:1057F00053455420746F2073657400507265737341
:10580000202B20746F206368616E67652068722E9C
:105810000050726573732053455420746F20736574
:105820007420686F7572005072657373202B20743A
:105830006F206368616E6765206D696E00507265E8
:1058400073732053455420746F20736574206D6901
:105850006E73005072657373202B20746F20636821
:10586000616E6765207365630050726573732053C2
:10587000455420746F207365742073656373005002
:1058800072657373202B20746F206368616E676587
:1058900020202020005072657373205345542074DB
:1058A0006F2073617665202020200050726573732D
:1058B0002053455420746F207365742020202020CD
:1058C000005072657373204D454E5520746F2065EE
:1058D000786974202020005072657373202B207427
:1058E0006F206368616E67652020200050726573C9
:1058F000732053455420746F2073617665202020F7
:10590000005072657373204D454E5520746F2065AD
:105910007869740050726573732053455420746F16
:1059200020736574202020005072657373202B2033
:10593000746F206368616E6765206D6F6E005072D2
:105940006573732053455420746F20736574206D04
:105950006F6E2E005072657373202B20746F20635E
:1059600068616E67652064617900507265737320A9
:1059700053455420746F207365742064617465000E
:105980005072657373202B20746F206368616E679B
:10599000652079722E005072657373205345542030
:1059A000746F207365742079656172007ED5ABD504
:1059B000ABD5AB7E007E8185D3DB8D817E00000080
:1059C000000000000000003C428181A19D423C009B
:1059D000060D0B060000000000763789684184023E
:1059E000800560018092886C7700000D1009041911
:1059F00020110800001C80F780FEC09FFE3BFF3F87
:105A0000332C78000000001C8037803EC03FFEFB36
:105A1000FFFF338C780000007800332CFF3FFE3B03
:105A2000C09F80FE80F7001C00007800338CFFFFD1
:105A3000FEFBC03F803E8037001C000030006E003F
:105A4000EB00D500D500EB006E0030000000F00048
:105A50006E006B00D500D500EB00EE00F0000000FA
:105A6000F0006E006B00750075006B006E00F000BA
:105A70000000F000EE00EB00D500D5006B006E00DA
:105A8000F000000000000000000000000000000026
:105A9000000000000000000000E0E0000000000046
:105AA0000000787800000000000038C6D6380000FA
:105AB000000038448292443800003C428181A19D1C
:105AC000423C00003C4281BD423C000000007E811F
:105AD000BD7E000000000000FFFF0000000000008D
